{
  "contractName": "DocumentStorage",
  "abi": [
    {
      "inputs": [
        {
          "internalType": "address",
          "name": "user",
          "type": "address"
        },
        {
          "internalType": "address",
          "name": "government",
          "type": "address"
        }
      ],
      "stateMutability": "nonpayable",
      "type": "constructor"
    },
    {
      "anonymous": false,
      "inputs": [
        {
          "indexed": false,
          "internalType": "string",
          "name": "name",
          "type": "string"
        },
        {
          "indexed": false,
          "internalType": "string",
          "name": "documentHash",
          "type": "string"
        },
        {
          "indexed": true,
          "internalType": "address",
          "name": "uploader",
          "type": "address"
        }
      ],
      "name": "DocumentUploaded",
      "type": "event"
    },
    {
      "inputs": [
        {
          "internalType": "bytes32",
          "name": "",
          "type": "bytes32"
        }
      ],
      "name": "documents",
      "outputs": [
        {
          "internalType": "string",
          "name": "name",
          "type": "string"
        },
        {
          "internalType": "string",
          "name": "owner",
          "type": "string"
        }
      ],
      "stateMutability": "view",
      "type": "function"
    },
    {
      "inputs": [
        {
          "internalType": "address",
          "name": "",
          "type": "address"
        }
      ],
      "name": "whitelist",
      "outputs": [
        {
          "internalType": "bool",
          "name": "",
          "type": "bool"
        }
      ],
      "stateMutability": "view",
      "type": "function"
    },
    {
      "inputs": [
        {
          "internalType": "string",
          "name": "_name",
          "type": "string"
        },
        {
          "internalType": "string",
          "name": "_documentHash",
          "type": "string"
        }
      ],
      "name": "uploadDocument",
      "outputs": [],
      "stateMutability": "nonpayable",
      "type": "function"
    }
  ],
  "bytecode": "0x608060405234801561000f575f80fd5b50604051610bb0380380610bb08339818101604052810190610031919061013e565b60015f808473ffffffffffffffffffffffffffffffffffffffff1673ffffffffffffffffffffffffffffffffffffffff1681526020019081526020015f205f6101000a81548160ff02191690831515021790555060015f808373ffffffffffffffffffffffffffffffffffffffff1673ffffffffffffffffffffffffffffffffffffffff1681526020019081526020015f205f6101000a81548160ff021916908315150217905550505061017c565b5f80fd5b5f73ffffffffffffffffffffffffffffffffffffffff82169050919050565b5f61010d826100e4565b9050919050565b61011d81610103565b8114610127575f80fd5b50565b5f8151905061013881610114565b92915050565b5f8060408385031215610154576101536100e0565b5b5f6101618582860161012a565b92505060206101728582860161012a565b9150509250929050565b610a27806101895f395ff3fe608060405234801561000f575f80fd5b506004361061003f575f3560e01c80632b2805db146100435780634464fe33146100745780639b19251a14610090575b5f80fd5b61005d60048036038101906100589190610373565b6100c0565b60405161006b929190610428565b60405180910390f35b61008e60048036038101906100899190610589565b6101ec565b005b6100aa60048036038101906100a59190610659565b610313565b6040516100b7919061069e565b60405180910390f35b6001602052805f5260405f205f91509050805f0180546100df906106e4565b80601f016020809104026020016040519081016040528092919081815260200182805461010b906106e4565b80156101565780601f1061012d57610100808354040283529160200191610156565b820191905f5260205f20905b81548152906001019060200180831161013957829003601f168201915b50505050509080600101805461016b906106e4565b80601f0160208091040260200160405190810160405280929190818152602001828054610197906106e4565b80156101e25780601f106101b9576101008083540402835291602001916101e2565b820191905f5260205f20905b8154815290600101906020018083116101c557829003601f168201915b5050505050905082565b5f803373ffffffffffffffffffffffffffffffffffffffff1673ffffffffffffffffffffffffffffffffffffffff1681526020019081526020015f205f9054906101000a900460ff16610274576040517f08c379a000000000000000000000000000000000000000000000000000000000815260040161026b9061075e565b60405180910390fd5b8060025f3373ffffffffffffffffffffffffffffffffffffffff1673ffffffffffffffffffffffffffffffffffffffff1681526020019081526020015f2090816102be9190610922565b503373ffffffffffffffffffffffffffffffffffffffff167f6751413201f489f5923a2415d3218a5bf8a5be5764be64ec5a5c0709863617e18383604051610307929190610428565b60405180910390a25050565b5f602052805f5260405f205f915054906101000a900460ff1681565b5f604051905090565b5f80fd5b5f80fd5b5f819050919050565b61035281610340565b811461035c575f80fd5b50565b5f8135905061036d81610349565b92915050565b5f6020828403121561038857610387610338565b5b5f6103958482850161035f565b91505092915050565b5f81519050919050565b5f82825260208201905092915050565b5f5b838110156103d55780820151818401526020810190506103ba565b5f8484015250505050565b5f601f19601f8301169050919050565b5f6103fa8261039e565b61040481856103a8565b93506104148185602086016103b8565b61041d816103e0565b840191505092915050565b5f6040820190508181035f83015261044081856103f0565b9050818103602083015261045481846103f0565b90509392505050565b5f80fd5b5f80fd5b7f4e487b71000000000000000000000000000000000000000000000000000000005f52604160045260245ffd5b61049b826103e0565b810181811067ffffffffffffffff821117156104ba576104b9610465565b5b80604052505050565b5f6104cc61032f565b90506104d88282610492565b919050565b5f67ffffffffffffffff8211156104f7576104f6610465565b5b610500826103e0565b9050602081019050919050565b828183375f83830152505050565b5f61052d610528846104dd565b6104c3565b90508281526020810184848401111561054957610548610461565b5b61055484828561050d565b509392505050565b5f82601f8301126105705761056f61045d565b5b813561058084826020860161051b565b91505092915050565b5f806040838503121561059f5761059e610338565b5b5f83013567ffffffffffffffff8111156105bc576105bb61033c565b5b6105c88582860161055c565b925050602083013567ffffffffffffffff8111156105e9576105e861033c565b5b6105f58582860161055c565b9150509250929050565b5f73ffffffffffffffffffffffffffffffffffffffff82169050919050565b5f610628826105ff565b9050919050565b6106388161061e565b8114610642575f80fd5b50565b5f813590506106538161062f565b92915050565b5f6020828403121561066e5761066d610338565b5b5f61067b84828501610645565b91505092915050565b5f8115159050919050565b61069881610684565b82525050565b5f6020820190506106b15f83018461068f565b92915050565b7f4e487b71000000000000000000000000000000000000000000000000000000005f52602260045260245ffd5b5f60028204905060018216806106fb57607f821691505b60208210810361070e5761070d6106b7565b5b50919050565b7f43616c6c6572206973206e6f742077686974656c6973746564000000000000005f82015250565b5f6107486019836103a8565b915061075382610714565b602082019050919050565b5f6020820190508181035f8301526107758161073c565b9050919050565b5f819050815f5260205f209050919050565b5f6020601f8301049050919050565b5f82821b905092915050565b5f600883026107d87fffffffffffffffffffffffffffffffffffffffffffffffffffffffffffffffff8261079d565b6107e2868361079d565b95508019841693508086168417925050509392505050565b5f819050919050565b5f819050919050565b5f61082661082161081c846107fa565b610803565b6107fa565b9050919050565b5f819050919050565b61083f8361080c565b61085361084b8261082d565b8484546107a9565b825550505050565b5f90565b61086761085b565b610872818484610836565b505050565b5b818110156108955761088a5f8261085f565b600181019050610878565b5050565b601f8211156108da576108ab8161077c565b6108b48461078e565b810160208510156108c3578190505b6108d76108cf8561078e565b830182610877565b50505b505050565b5f82821c905092915050565b5f6108fa5f19846008026108df565b1980831691505092915050565b5f61091283836108eb565b9150826002028217905092915050565b61092b8261039e565b67ffffffffffffffff81111561094457610943610465565b5b61094e82546106e4565b610959828285610899565b5f60209050601f83116001811461098a575f8415610978578287015190505b6109828582610907565b8655506109e9565b601f1984166109988661077c565b5f5b828110156109bf5784890151825560018201915060208501945060208101905061099a565b868310156109dc57848901516109d8601f8916826108eb565b8355505b6001600288020188555050505b50505050505056fea26469706673582212206ba32c0540622031c1887ea88bd8b1c0cf5a515197c64bf5dbefa17d115ee7ca64736f6c63430008150033",
  "immutableReferences": {},
  "source": "//program coding\n//// SPDX-License-Identifier: MIT\npragma solidity >=0.6.12 <0.9.0;\n\n\ncontract DocumentStorage {\n    // Mapping to store whitelisted addresses\n    mapping(address => bool) public whitelist;\n\n    // Mapping to store document hashes and metadata\n    mapping(bytes32 => Document) public documents;\n    mapping (address => string) private hashid;\n\n    // Struct to represent document metadata\n    struct Document {\n        string name;\n        string owner;\n    }\n\n    // Modifier to restrict access to whitelisted users\n    modifier onlyWhitelisted() {\n        require(whitelist[msg.sender], \"Caller is not whitelisted\");\n        _;\n    }\n\n    // Constructor whitelists two specific users\n    constructor(address user, address government) {\n         whitelist[user] = true;\n        whitelist[government] = true;\n    }\n\n    // Function to upload a new document (restricted to whitelisted users)\n    function uploadDocument(string memory _name, string memory _documentHash) public onlyWhitelisted {\n        // Validate input\n\n        // Generate unique document identifier\n        // bytes32 documentId = keccak256(abi.encodePacked(_name, _documentHash, msg.sender));\n        \n\n        hashid[msg.sender ]= _documentHash;\n\n        // Ensure document doesn't already exist\n\n        // Store document metadata\n        // documents[documentId] = Document({\n        //     name: _name,\n        //     owner\n        // });\n\n        // Emit event for external tracking\n        emit DocumentUploaded(_name, _documentHash, msg.sender);\n    }\n    //adding hash\n\n    \n    // function get_document()private view returns(bytes32 []ipfshash){\n\n    // }\n\n\n    // Event for tracking document uploads\n    event DocumentUploaded(string name, string documentHash, address indexed uploader);\n}",
  "sourcePath": "/home/krishtimil/dev/dapps/sagarmatha/truffle/contracts/documents.sol",
  "compiler": {
    "name": "solc",
    "version": "0.8.21+commit.d9974bed.Emscripten.clang"
  },
  "schemaVersion": "3.4.16",
  "updatedAt": "2023-12-23T12:24:39.739Z",
  "devdoc": {
    "kind": "dev",
    "methods": {},
    "version": 1
  },
  "userdoc": {
    "kind": "user",
    "methods": {},
    "version": 1
  }
}