{
  "contractName": "info",
  "abi": [
    {
      "inputs": [
        {
          "internalType": "address",
          "name": "_governmentAddr",
          "type": "address"
        }
      ],
      "stateMutability": "nonpayable",
      "type": "constructor"
    },
    {
      "anonymous": false,
      "inputs": [
        {
          "indexed": false,
          "internalType": "address",
          "name": "_userAddress",
          "type": "address"
        },
        {
          "indexed": false,
          "internalType": "string",
          "name": "_name",
          "type": "string"
        }
      ],
      "name": "userRegistered",
      "type": "event"
    },
    {
      "anonymous": false,
      "inputs": [
        {
          "indexed": false,
          "internalType": "address",
          "name": "_userAddress",
          "type": "address"
        },
        {
          "indexed": false,
          "internalType": "string",
          "name": "_name",
          "type": "string"
        }
      ],
      "name": "userUpdated",
      "type": "event"
    },
    {
      "inputs": [
        {
          "internalType": "address",
          "name": "",
          "type": "address"
        }
      ],
      "name": "whitelist",
      "outputs": [
        {
          "internalType": "bool",
          "name": "",
          "type": "bool"
        }
      ],
      "stateMutability": "view",
      "type": "function"
    },
    {
      "inputs": [
        {
          "components": [
            {
              "internalType": "string",
              "name": "name",
              "type": "string"
            },
            {
              "internalType": "string",
              "name": "contact_num",
              "type": "string"
            },
            {
              "internalType": "string[]",
              "name": "documents",
              "type": "string[]"
            },
            {
              "internalType": "string",
              "name": "dob",
              "type": "string"
            },
            {
              "internalType": "string",
              "name": "temp_addr",
              "type": "string"
            },
            {
              "internalType": "string",
              "name": "perm_addr",
              "type": "string"
            },
            {
              "internalType": "uint256",
              "name": "lastUpdated",
              "type": "uint256"
            }
          ],
          "internalType": "struct info.User",
          "name": "_user",
          "type": "tuple"
        }
      ],
      "name": "registerUser",
      "outputs": [],
      "stateMutability": "nonpayable",
      "type": "function"
    },
    {
      "inputs": [
        {
          "components": [
            {
              "internalType": "string",
              "name": "name",
              "type": "string"
            },
            {
              "internalType": "string",
              "name": "contact_num",
              "type": "string"
            },
            {
              "internalType": "string[]",
              "name": "documents",
              "type": "string[]"
            },
            {
              "internalType": "string",
              "name": "dob",
              "type": "string"
            },
            {
              "internalType": "string",
              "name": "temp_addr",
              "type": "string"
            },
            {
              "internalType": "string",
              "name": "perm_addr",
              "type": "string"
            },
            {
              "internalType": "uint256",
              "name": "lastUpdated",
              "type": "uint256"
            }
          ],
          "internalType": "struct info.User",
          "name": "_user",
          "type": "tuple"
        }
      ],
      "name": "updateUser",
      "outputs": [],
      "stateMutability": "nonpayable",
      "type": "function"
    },
    {
      "inputs": [
        {
          "internalType": "address",
          "name": "_address",
          "type": "address"
        },
        {
          "internalType": "string",
          "name": "_newFileHash",
          "type": "string"
        }
      ],
      "name": "addDocument",
      "outputs": [],
      "stateMutability": "nonpayable",
      "type": "function"
    },
    {
      "inputs": [
        {
          "internalType": "address",
          "name": "_address",
          "type": "address"
        }
      ],
      "name": "getUser",
      "outputs": [
        {
          "components": [
            {
              "internalType": "string",
              "name": "name",
              "type": "string"
            },
            {
              "internalType": "string",
              "name": "contact_num",
              "type": "string"
            },
            {
              "internalType": "string[]",
              "name": "documents",
              "type": "string[]"
            },
            {
              "internalType": "string",
              "name": "dob",
              "type": "string"
            },
            {
              "internalType": "string",
              "name": "temp_addr",
              "type": "string"
            },
            {
              "internalType": "string",
              "name": "perm_addr",
              "type": "string"
            },
            {
              "internalType": "uint256",
              "name": "lastUpdated",
              "type": "uint256"
            }
          ],
          "internalType": "struct info.User",
          "name": "",
          "type": "tuple"
        }
      ],
      "stateMutability": "view",
      "type": "function"
    }
  ],
  "bytecode": "0x608060405234801562000010575f80fd5b50604051620019cc380380620019cc83398181016040528101906200003691906200014a565b60015f803373ffffffffffffffffffffffffffffffffffffffff1673ffffffffffffffffffffffffffffffffffffffff1681526020019081526020015f205f6101000a81548160ff02191690831515021790555060015f808373ffffffffffffffffffffffffffffffffffffffff1673ffffffffffffffffffffffffffffffffffffffff1681526020019081526020015f205f6101000a81548160ff021916908315150217905550506200017a565b5f80fd5b5f73ffffffffffffffffffffffffffffffffffffffff82169050919050565b5f6200011482620000e9565b9050919050565b620001268162000108565b811462000131575f80fd5b50565b5f8151905062000144816200011b565b92915050565b5f60208284031215620001625762000161620000e5565b5b5f620001718482850162000134565b91505092915050565b61184480620001885f395ff3fe608060405234801561000f575f80fd5b5060043610610055575f3560e01c80634ff5be5f1461005957806365668764146100755780636f77926b146100915780639b19251a146100c1578063c48c2fa7146100f1575b5f80fd5b610073600480360381019061006e9190610fcb565b61010d565b005b61008f600480360381019061008a919061106c565b61027b565b005b6100ab60048036038101906100a691906110c6565b6102ef565b6040516100b891906112f1565b60405180910390f35b6100db60048036038101906100d691906110c6565b61077b565b6040516100e8919061132b565b60405180910390f35b61010b60048036038101906101069190610fcb565b610797565b005b61011633610aae565b1561011f575f80fd5b6040518060e00160405280825f01518152602001826020015181526020018260400151815260200182606001518152602001826080015181526020018260a0015181526020014281525060015f3373ffffffffffffffffffffffffffffffffffffffff1673ffffffffffffffffffffffffffffffffffffffff1681526020019081526020015f205f820151815f0190816101b9919061153e565b5060208201518160010190816101cf919061153e565b5060408201518160020190805190602001906101ec929190610afa565b506060820151816003019081610202919061153e565b506080820151816004019081610218919061153e565b5060a082015181600501908161022e919061153e565b5060c082015181600601559050507fe5d4ce58d70016e45a65c0ac4176f20836975b47dac57ed370c1e730c58d49fc33825f0151604051610270929190611664565b60405180910390a150565b60015f8373ffffffffffffffffffffffffffffffffffffffff1673ffffffffffffffffffffffffffffffffffffffff1681526020019081526020015f2060020181908060018154018082558091505060019003905f5260205f20015f9091909190915090816102ea919061153e565b505050565b6102f7610b51565b5f803373ffffffffffffffffffffffffffffffffffffffff1673ffffffffffffffffffffffffffffffffffffffff1681526020019081526020015f205f9054906101000a900460ff1661037f576040517f08c379a000000000000000000000000000000000000000000000000000000000815260040161037690611702565b60405180910390fd5b60015f8373ffffffffffffffffffffffffffffffffffffffff1673ffffffffffffffffffffffffffffffffffffffff1681526020019081526020015f206040518060e00160405290815f820180546103d690611371565b80601f016020809104026020016040519081016040528092919081815260200182805461040290611371565b801561044d5780601f106104245761010080835404028352916020019161044d565b820191905f5260205f20905b81548152906001019060200180831161043057829003601f168201915b5050505050815260200160018201805461046690611371565b80601f016020809104026020016040519081016040528092919081815260200182805461049290611371565b80156104dd5780601f106104b4576101008083540402835291602001916104dd565b820191905f5260205f20905b8154815290600101906020018083116104c057829003601f168201915b5050505050815260200160028201805480602002602001604051908101604052809291908181526020015f905b828210156105b2578382905f5260205f2001805461052790611371565b80601f016020809104026020016040519081016040528092919081815260200182805461055390611371565b801561059e5780601f106105755761010080835404028352916020019161059e565b820191905f5260205f20905b81548152906001019060200180831161058157829003601f168201915b50505050508152602001906001019061050a565b5050505081526020016003820180546105ca90611371565b80601f01602080910402602001604051908101604052809291908181526020018280546105f690611371565b80156106415780601f1061061857610100808354040283529160200191610641565b820191905f5260205f20905b81548152906001019060200180831161062457829003601f168201915b5050505050815260200160048201805461065a90611371565b80601f016020809104026020016040519081016040528092919081815260200182805461068690611371565b80156106d15780601f106106a8576101008083540402835291602001916106d1565b820191905f5260205f20905b8154815290600101906020018083116106b457829003601f168201915b505050505081526020016005820180546106ea90611371565b80601f016020809104026020016040519081016040528092919081815260200182805461071690611371565b80156107615780601f1061073857610100808354040283529160200191610761565b820191905f5260205f20905b81548152906001019060200180831161074457829003601f168201915b505050505081526020016006820154815250509050919050565b5f602052805f5260405f205f915054906101000a900460ff1681565b6107a033610aae565b6107a8575f80fd5b6201518060015f3373ffffffffffffffffffffffffffffffffffffffff1673ffffffffffffffffffffffffffffffffffffffff1681526020019081526020015f2060060154426107f8919061174d565b1015610839576040517f08c379a0000000000000000000000000000000000000000000000000000000008152600401610830906117f0565b60405180910390fd5b805f015160015f3373ffffffffffffffffffffffffffffffffffffffff1673ffffffffffffffffffffffffffffffffffffffff1681526020019081526020015f205f019081610888919061153e565b50806020015160015f3373ffffffffffffffffffffffffffffffffffffffff1673ffffffffffffffffffffffffffffffffffffffff1681526020019081526020015f2060010190816108da919061153e565b50806040015160015f3373ffffffffffffffffffffffffffffffffffffffff1673ffffffffffffffffffffffffffffffffffffffff1681526020019081526020015f206002019080519060200190610933929190610afa565b50806060015160015f3373ffffffffffffffffffffffffffffffffffffffff1673ffffffffffffffffffffffffffffffffffffffff1681526020019081526020015f206003019081610985919061153e565b50806080015160015f3373ffffffffffffffffffffffffffffffffffffffff1673ffffffffffffffffffffffffffffffffffffffff1681526020019081526020015f2060040190816109d7919061153e565b508060a0015160015f3373ffffffffffffffffffffffffffffffffffffffff1673ffffffffffffffffffffffffffffffffffffffff1681526020019081526020015f206005019081610a29919061153e565b504260015f3373ffffffffffffffffffffffffffffffffffffffff1673ffffffffffffffffffffffffffffffffffffffff1681526020019081526020015f20600601819055507fe99ebf891ecf1848497e78549bd314016c4d1cb85202983ee2949410bc3e605633825f0151604051610aa3929190611664565b60405180910390a150565b5f8060015f8473ffffffffffffffffffffffffffffffffffffffff1673ffffffffffffffffffffffffffffffffffffffff1681526020019081526020015f206006015414159050919050565b828054828255905f5260205f20908101928215610b40579160200282015b82811115610b3f578251829081610b2f919061153e565b5091602001919060010190610b18565b5b509050610b4d9190610b8d565b5090565b6040518060e001604052806060815260200160608152602001606081526020016060815260200160608152602001606081526020015f81525090565b5b80821115610bac575f8181610ba39190610bb0565b50600101610b8e565b5090565b508054610bbc90611371565b5f825580601f10610bcd5750610bea565b601f0160209004905f5260205f2090810190610be99190610bed565b5b50565b5b80821115610c04575f815f905550600101610bee565b5090565b5f604051905090565b5f80fd5b5f80fd5b5f80fd5b5f601f19601f8301169050919050565b7f4e487b71000000000000000000000000000000000000000000000000000000005f52604160045260245ffd5b610c6382610c1d565b810181811067ffffffffffffffff82111715610c8257610c81610c2d565b5b80604052505050565b5f610c94610c08565b9050610ca08282610c5a565b919050565b5f80fd5b5f80fd5b5f80fd5b5f67ffffffffffffffff821115610ccb57610cca610c2d565b5b610cd482610c1d565b9050602081019050919050565b828183375f83830152505050565b5f610d01610cfc84610cb1565b610c8b565b905082815260208101848484011115610d1d57610d1c610cad565b5b610d28848285610ce1565b509392505050565b5f82601f830112610d4457610d43610ca9565b5b8135610d54848260208601610cef565b91505092915050565b5f67ffffffffffffffff821115610d7757610d76610c2d565b5b602082029050602081019050919050565b5f80fd5b5f610d9e610d9984610d5d565b610c8b565b90508083825260208201905060208402830185811115610dc157610dc0610d88565b5b835b81811015610e0857803567ffffffffffffffff811115610de657610de5610ca9565b5b808601610df38982610d30565b85526020850194505050602081019050610dc3565b5050509392505050565b5f82601f830112610e2657610e25610ca9565b5b8135610e36848260208601610d8c565b91505092915050565b5f819050919050565b610e5181610e3f565b8114610e5b575f80fd5b50565b5f81359050610e6c81610e48565b92915050565b5f60e08284031215610e8757610e86610c19565b5b610e9160e0610c8b565b90505f82013567ffffffffffffffff811115610eb057610eaf610ca5565b5b610ebc84828501610d30565b5f83015250602082013567ffffffffffffffff811115610edf57610ede610ca5565b5b610eeb84828501610d30565b602083015250604082013567ffffffffffffffff811115610f0f57610f0e610ca5565b5b610f1b84828501610e12565b604083015250606082013567ffffffffffffffff811115610f3f57610f3e610ca5565b5b610f4b84828501610d30565b606083015250608082013567ffffffffffffffff811115610f6f57610f6e610ca5565b5b610f7b84828501610d30565b60808301525060a082013567ffffffffffffffff811115610f9f57610f9e610ca5565b5b610fab84828501610d30565b60a08301525060c0610fbf84828501610e5e565b60c08301525092915050565b5f60208284031215610fe057610fdf610c11565b5b5f82013567ffffffffffffffff811115610ffd57610ffc610c15565b5b61100984828501610e72565b91505092915050565b5f73ffffffffffffffffffffffffffffffffffffffff82169050919050565b5f61103b82611012565b9050919050565b61104b81611031565b8114611055575f80fd5b50565b5f8135905061106681611042565b92915050565b5f806040838503121561108257611081610c11565b5b5f61108f85828601611058565b925050602083013567ffffffffffffffff8111156110b0576110af610c15565b5b6110bc85828601610d30565b9150509250929050565b5f602082840312156110db576110da610c11565b5b5f6110e884828501611058565b91505092915050565b5f81519050919050565b5f82825260208201905092915050565b5f5b8381101561112857808201518184015260208101905061110d565b5f8484015250505050565b5f61113d826110f1565b61114781856110fb565b935061115781856020860161110b565b61116081610c1d565b840191505092915050565b5f81519050919050565b5f82825260208201905092915050565b5f819050602082019050919050565b5f61119f8383611133565b905092915050565b5f602082019050919050565b5f6111bd8261116b565b6111c78185611175565b9350836020820285016111d985611185565b805f5b8581101561121457848403895281516111f58582611194565b9450611200836111a7565b925060208a019950506001810190506111dc565b50829750879550505050505092915050565b61122f81610e3f565b82525050565b5f60e083015f8301518482035f86015261124f8282611133565b915050602083015184820360208601526112698282611133565b9150506040830151848203604086015261128382826111b3565b9150506060830151848203606086015261129d8282611133565b915050608083015184820360808601526112b78282611133565b91505060a083015184820360a08601526112d18282611133565b91505060c08301516112e660c0860182611226565b508091505092915050565b5f6020820190508181035f8301526113098184611235565b905092915050565b5f8115159050919050565b61132581611311565b82525050565b5f60208201905061133e5f83018461131c565b92915050565b7f4e487b71000000000000000000000000000000000000000000000000000000005f52602260045260245ffd5b5f600282049050600182168061138857607f821691505b60208210810361139b5761139a611344565b5b50919050565b5f819050815f5260205f209050919050565b5f6020601f8301049050919050565b5f82821b905092915050565b5f600883026113fd7fffffffffffffffffffffffffffffffffffffffffffffffffffffffffffffffff826113c2565b61140786836113c2565b95508019841693508086168417925050509392505050565b5f819050919050565b5f61144261143d61143884610e3f565b61141f565b610e3f565b9050919050565b5f819050919050565b61145b83611428565b61146f61146782611449565b8484546113ce565b825550505050565b5f90565b611483611477565b61148e818484611452565b505050565b5b818110156114b1576114a65f8261147b565b600181019050611494565b5050565b601f8211156114f6576114c7816113a1565b6114d0846113b3565b810160208510156114df578190505b6114f36114eb856113b3565b830182611493565b50505b505050565b5f82821c905092915050565b5f6115165f19846008026114fb565b1980831691505092915050565b5f61152e8383611507565b9150826002028217905092915050565b611547826110f1565b67ffffffffffffffff8111156115605761155f610c2d565b5b61156a8254611371565b6115758282856114b5565b5f60209050601f8311600181146115a6575f8415611594578287015190505b61159e8582611523565b865550611605565b601f1984166115b4866113a1565b5f5b828110156115db578489015182556001820191506020850194506020810190506115b6565b868310156115f857848901516115f4601f891682611507565b8355505b6001600288020188555050505b505050505050565b61161681611031565b82525050565b5f82825260208201905092915050565b5f611636826110f1565b611640818561161c565b935061165081856020860161110b565b61165981610c1d565b840191505092915050565b5f6040820190506116775f83018561160d565b8181036020830152611689818461162c565b90509392505050565b7f796f7520646f6e7420686176652061636365737320746f207468697320726f6c5f8201527f6500000000000000000000000000000000000000000000000000000000000000602082015250565b5f6116ec60218361161c565b91506116f782611692565b604082019050919050565b5f6020820190508181035f830152611719816116e0565b9050919050565b7f4e487b71000000000000000000000000000000000000000000000000000000005f52601160045260245ffd5b5f61175782610e3f565b915061176283610e3f565b925082820390508181111561177a57611779611720565b5b92915050565b7f557365722063616e206f6e6c7920757064617465206f6e6365207065722064615f8201527f7900000000000000000000000000000000000000000000000000000000000000602082015250565b5f6117da60218361161c565b91506117e582611780565b604082019050919050565b5f6020820190508181035f830152611807816117ce565b905091905056fea2646970667358221220a8d636d9bd035ccf2315b61d52895f60b8459a6e76c31d6565a494b9c12f2b4f64736f6c63430008150033",
  "immutableReferences": {},
  "source": "//program coding\n//// SPDX-License-Identifier: MIT\npragma solidity >=0.6.12 <0.9.0;\n\n// import \"./documents.sol\";\n\ncontract info{\n    mapping (address => bool) public whitelist;\n    mapping (address => User) private users;\n\n    event userRegistered(address _userAddress, string _name);\n    event userUpdated(address _userAddress, string _name);\n\n    // event DocumentUploaded(bytes32 indexed documentId, string name, string documentHash, address indexed uploader);\n\n    struct User{\n        string name;\n        string contact_num;\n        string[] documents;\n        string dob;\n        string temp_addr;\n        string perm_addr;\n        uint lastUpdated;\n    }\n\n    modifier onlyWhitelisted() {\n        require(whitelist[msg.sender], \"you dont have access to this role\");\n        _;\n    }\n\n    // Constructor whitelists two specific users\n    constructor(address _governmentAddr) {\n        whitelist[msg.sender] = true;\n        whitelist[_governmentAddr] = true;\n    }\n\n\n    function isUserRegistered(address userAddress) internal view returns (bool) {\n        // return bytes(users[userAddress].name).length > 0;\n        return users[userAddress].lastUpdated != 0;\n    }\n\n    function registerUser(User memory _user) public {\n        require(!isUserRegistered(msg.sender));\n        users[msg.sender] = User({\n            name: _user.name,\n            contact_num: _user.contact_num,\n            documents: _user.documents,\n            dob: _user.dob,\n            temp_addr: _user.temp_addr,\n            perm_addr: _user.perm_addr,\n            lastUpdated: block.timestamp\n        });\n        emit userRegistered(msg.sender, _user.name);\n    }\n\n    function updateUser(User memory _user) public {\n        require(isUserRegistered(msg.sender));\n        require(block.timestamp - users[msg.sender].lastUpdated >= 1 days, \"User can only update once per day\");\n        users[msg.sender].name = _user.name;\n        users[msg.sender].contact_num = _user.contact_num;\n        users[msg.sender].documents = _user.documents;\n        users[msg.sender].dob = _user.dob;\n        users[msg.sender].temp_addr = _user.temp_addr;\n        users[msg.sender].perm_addr = _user.perm_addr;\n        users[msg.sender].lastUpdated = block.timestamp;\n        emit userUpdated(msg.sender, _user.name);\n    }\n\n    function addDocument(address _address, string memory _newFileHash) public {\n        users[_address].documents.push(_newFileHash);\n\n        // emit DocumentUploaded(documentId, _fileName, _documentHash, msg.sender);\n    }\n\n    function getUser (address _address) public view onlyWhitelisted returns (User memory) {\n        return users[_address];\n    }\n    \n}",
  "sourcePath": "/home/krishtimil/dev/dapps/sagarmatha/truffle/contracts/info.sol",
  "compiler": {
    "name": "solc",
    "version": "0.8.21+commit.d9974bed.Emscripten.clang"
  },
  "schemaVersion": "3.4.16",
  "updatedAt": "2023-12-23T16:39:59.968Z",
  "devdoc": {
    "kind": "dev",
    "methods": {},
    "version": 1
  },
  "userdoc": {
    "kind": "user",
    "methods": {},
    "version": 1
  }
}