{
  "contractName": "info",
  "abi": [
    {
      "anonymous": false,
      "inputs": [
        {
          "indexed": false,
          "internalType": "address",
          "name": "_userAddress",
          "type": "address"
        },
        {
          "indexed": false,
          "internalType": "string",
          "name": "_name",
          "type": "string"
        }
      ],
      "name": "userRegistered",
      "type": "event"
    },
    {
      "anonymous": false,
      "inputs": [
        {
          "indexed": false,
          "internalType": "address",
          "name": "_userAddress",
          "type": "address"
        },
        {
          "indexed": false,
          "internalType": "string",
          "name": "_name",
          "type": "string"
        }
      ],
      "name": "userUpdated",
      "type": "event"
    },
    {
      "inputs": [
        {
          "internalType": "address",
          "name": "",
          "type": "address"
        }
      ],
      "name": "whitelist",
      "outputs": [
        {
          "internalType": "bool",
          "name": "",
          "type": "bool"
        }
      ],
      "stateMutability": "view",
      "type": "function"
    },
    {
      "inputs": [
        {
          "internalType": "address",
          "name": "new_document",
          "type": "address"
        }
      ],
      "name": "uploadData",
      "outputs": [],
      "stateMutability": "nonpayable",
      "type": "function"
    },
    {
      "inputs": [
        {
          "internalType": "string",
          "name": "_name",
          "type": "string"
        },
        {
          "internalType": "string",
          "name": "_contactNum",
          "type": "string"
        },
        {
          "internalType": "string[]",
          "name": "_docs",
          "type": "string[]"
        }
      ],
      "name": "registerUser",
      "outputs": [],
      "stateMutability": "nonpayable",
      "type": "function"
    },
    {
      "inputs": [
        {
          "internalType": "string",
          "name": "_name",
          "type": "string"
        },
        {
          "internalType": "string",
          "name": "_contactNum",
          "type": "string"
        },
        {
          "internalType": "string[]",
          "name": "_docs",
          "type": "string[]"
        }
      ],
      "name": "updateUser",
      "outputs": [],
      "stateMutability": "nonpayable",
      "type": "function"
    }
  ],
  "bytecode": "0x608060405234801561000f575f80fd5b50610e748061001d5f395ff3fe608060405234801561000f575f80fd5b506004361061004a575f3560e01c80633fbb62fa1461004e5780639b19251a1461006a578063e42089c81461009a578063e7a8c912146100b6575b5f80fd5b610068600480360381019061006391906107dd565b6100d2565b005b610084600480360381019061007f91906108db565b6102e7565b6040516100919190610920565b60405180910390f35b6100b460048036038101906100af91906108db565b610303565b005b6100d060048036038101906100cb91906107dd565b61038e565b005b6100db33610490565b6100e3575f80fd5b6201518060015f3373ffffffffffffffffffffffffffffffffffffffff1673ffffffffffffffffffffffffffffffffffffffff1681526020019081526020015f206003015442610133919061096f565b1015610174576040517f08c379a000000000000000000000000000000000000000000000000000000000815260040161016b90610a22565b60405180910390fd5b8260015f3373ffffffffffffffffffffffffffffffffffffffff1673ffffffffffffffffffffffffffffffffffffffff1681526020019081526020015f205f0190816101c09190610c44565b508060015f3373ffffffffffffffffffffffffffffffffffffffff1673ffffffffffffffffffffffffffffffffffffffff1681526020019081526020015f2060020190805190602001906102159291906104dc565b508160015f3373ffffffffffffffffffffffffffffffffffffffff1673ffffffffffffffffffffffffffffffffffffffff1681526020019081526020015f2060010190816102639190610c44565b504260015f3373ffffffffffffffffffffffffffffffffffffffff1673ffffffffffffffffffffffffffffffffffffffff1681526020019081526020015f20600301819055507fe99ebf891ecf1848497e78549bd314016c4d1cb85202983ee2949410bc3e605633846040516102da929190610d82565b60405180910390a1505050565b5f602052805f5260405f205f915054906101000a900460ff1681565b5f803373ffffffffffffffffffffffffffffffffffffffff1673ffffffffffffffffffffffffffffffffffffffff1681526020019081526020015f205f9054906101000a900460ff1661038b576040517f08c379a000000000000000000000000000000000000000000000000000000000815260040161038290610e20565b60405180910390fd5b50565b61039733610490565b156103a0575f80fd5b60405180608001604052808481526020018381526020018281526020014281525060015f3373ffffffffffffffffffffffffffffffffffffffff1673ffffffffffffffffffffffffffffffffffffffff1681526020019081526020015f205f820151815f0190816104119190610c44565b5060208201518160010190816104279190610c44565b5060408201518160020190805190602001906104449291906104dc565b50606082015181600301559050507fe5d4ce58d70016e45a65c0ac4176f20836975b47dac57ed370c1e730c58d49fc3384604051610483929190610d82565b60405180910390a1505050565b5f8060015f8473ffffffffffffffffffffffffffffffffffffffff1673ffffffffffffffffffffffffffffffffffffffff1681526020019081526020015f206003015414159050919050565b828054828255905f5260205f20908101928215610522579160200282015b828111156105215782518290816105119190610c44565b50916020019190600101906104fa565b5b50905061052f9190610533565b5090565b5b80821115610552575f81816105499190610556565b50600101610534565b5090565b50805461056290610a77565b5f825580601f106105735750610590565b601f0160209004905f5260205f209081019061058f9190610593565b5b50565b5b808211156105aa575f815f905550600101610594565b5090565b5f604051905090565b5f80fd5b5f80fd5b5f80fd5b5f80fd5b5f601f19601f8301169050919050565b7f4e487b71000000000000000000000000000000000000000000000000000000005f52604160045260245ffd5b61060d826105c7565b810181811067ffffffffffffffff8211171561062c5761062b6105d7565b5b80604052505050565b5f61063e6105ae565b905061064a8282610604565b919050565b5f67ffffffffffffffff821115610669576106686105d7565b5b610672826105c7565b9050602081019050919050565b828183375f83830152505050565b5f61069f61069a8461064f565b610635565b9050828152602081018484840111156106bb576106ba6105c3565b5b6106c684828561067f565b509392505050565b5f82601f8301126106e2576106e16105bf565b5b81356106f284826020860161068d565b91505092915050565b5f67ffffffffffffffff821115610715576107146105d7565b5b602082029050602081019050919050565b5f80fd5b5f61073c610737846106fb565b610635565b9050808382526020820190506020840283018581111561075f5761075e610726565b5b835b818110156107a657803567ffffffffffffffff811115610784576107836105bf565b5b80860161079189826106ce565b85526020850194505050602081019050610761565b5050509392505050565b5f82601f8301126107c4576107c36105bf565b5b81356107d484826020860161072a565b91505092915050565b5f805f606084860312156107f4576107f36105b7565b5b5f84013567ffffffffffffffff811115610811576108106105bb565b5b61081d868287016106ce565b935050602084013567ffffffffffffffff81111561083e5761083d6105bb565b5b61084a868287016106ce565b925050604084013567ffffffffffffffff81111561086b5761086a6105bb565b5b610877868287016107b0565b9150509250925092565b5f73ffffffffffffffffffffffffffffffffffffffff82169050919050565b5f6108aa82610881565b9050919050565b6108ba816108a0565b81146108c4575f80fd5b50565b5f813590506108d5816108b1565b92915050565b5f602082840312156108f0576108ef6105b7565b5b5f6108fd848285016108c7565b91505092915050565b5f8115159050919050565b61091a81610906565b82525050565b5f6020820190506109335f830184610911565b92915050565b5f819050919050565b7f4e487b71000000000000000000000000000000000000000000000000000000005f52601160045260245ffd5b5f61097982610939565b915061098483610939565b925082820390508181111561099c5761099b610942565b5b92915050565b5f82825260208201905092915050565b7f557365722063616e206f6e6c7920757064617465206f6e6365207065722064615f8201527f7900000000000000000000000000000000000000000000000000000000000000602082015250565b5f610a0c6021836109a2565b9150610a17826109b2565b604082019050919050565b5f6020820190508181035f830152610a3981610a00565b9050919050565b5f81519050919050565b7f4e487b71000000000000000000000000000000000000000000000000000000005f52602260045260245ffd5b5f6002820490506001821680610a8e57607f821691505b602082108103610aa157610aa0610a4a565b5b50919050565b5f819050815f5260205f209050919050565b5f6020601f8301049050919050565b5f82821b905092915050565b5f60088302610b037fffffffffffffffffffffffffffffffffffffffffffffffffffffffffffffffff82610ac8565b610b0d8683610ac8565b95508019841693508086168417925050509392505050565b5f819050919050565b5f610b48610b43610b3e84610939565b610b25565b610939565b9050919050565b5f819050919050565b610b6183610b2e565b610b75610b6d82610b4f565b848454610ad4565b825550505050565b5f90565b610b89610b7d565b610b94818484610b58565b505050565b5b81811015610bb757610bac5f82610b81565b600181019050610b9a565b5050565b601f821115610bfc57610bcd81610aa7565b610bd684610ab9565b81016020851015610be5578190505b610bf9610bf185610ab9565b830182610b99565b50505b505050565b5f82821c905092915050565b5f610c1c5f1984600802610c01565b1980831691505092915050565b5f610c348383610c0d565b9150826002028217905092915050565b610c4d82610a40565b67ffffffffffffffff811115610c6657610c656105d7565b5b610c708254610a77565b610c7b828285610bbb565b5f60209050601f831160018114610cac575f8415610c9a578287015190505b610ca48582610c29565b865550610d0b565b601f198416610cba86610aa7565b5f5b82811015610ce157848901518255600182019150602085019450602081019050610cbc565b86831015610cfe5784890151610cfa601f891682610c0d565b8355505b6001600288020188555050505b505050505050565b610d1c816108a0565b82525050565b5f5b83811015610d3f578082015181840152602081019050610d24565b5f8484015250505050565b5f610d5482610a40565b610d5e81856109a2565b9350610d6e818560208601610d22565b610d77816105c7565b840191505092915050565b5f604082019050610d955f830185610d13565b8181036020830152610da78184610d4a565b90509392505050565b7f796f7520646f6e7420686176652061636365737320746f207468697320726f6c5f8201527f6500000000000000000000000000000000000000000000000000000000000000602082015250565b5f610e0a6021836109a2565b9150610e1582610db0565b604082019050919050565b5f6020820190508181035f830152610e3781610dfe565b905091905056fea2646970667358221220da4caa5f4088c20ec4e750387c2d7f2febc1ee93e10de99ffa32cc77212d039364736f6c63430008150033",
  "immutableReferences": {},
  "source": "//program coding\n//// SPDX-License-Identifier: MIT\npragma solidity >=0.6.12 <0.9.0;\n\ncontract info{\n    mapping (address => bool) public whitelist;\n    mapping (address => User) private users;\n\n    event userRegistered(address _userAddress, string _name);\n    event userUpdated(address _userAddress, string _name);\n\n    struct User{\n        string name;\n        string contact_num;\n        string[] documents;\n        uint lastUpdated;\n    }\n\n    modifier onlyWhitelisted() {\n        require(whitelist[msg.sender], \"you dont have access to this role\");\n        _;\n    }\n\n    //tasks only government and user can accomplish\n    function uploadData(address new_document)public onlyWhitelisted{\n        //\n\n    }\n\n    function isUserRegistered(address userAddress) internal view returns (bool) {\n        // return bytes(users[userAddress].name).length > 0;\n        return users[userAddress].lastUpdated != 0;\n    }\n\n    function registerUser(string memory _name, string memory _contactNum, string[] memory _docs) public {\n        require(!isUserRegistered(msg.sender));\n        users[msg.sender] = User({\n            name: _name,\n            contact_num: _contactNum,\n            documents: _docs,\n            lastUpdated: block.timestamp\n        });\n        emit userRegistered(msg.sender, _name);\n    }\n\n    function updateUser(string memory _name, string memory _contactNum, string[] memory _docs) public {\n        require(isUserRegistered(msg.sender));\n        require(block.timestamp - users[msg.sender].lastUpdated >= 1 days, \"User can only update once per day\");\n        users[msg.sender].name = _name;\n        users[msg.sender].documents = _docs;\n        users[msg.sender].contact_num = _contactNum;\n        users[msg.sender].lastUpdated = block.timestamp;\n        emit userUpdated(msg.sender, _name);\n    }\n    \n}",
  "sourcePath": "/home/krishtimil/dev/dapps/sagarmatha/truffle/contracts/info.sol",
  "compiler": {
    "name": "solc",
    "version": "0.8.21+commit.d9974bed.Emscripten.clang"
  },
  "schemaVersion": "3.4.16",
  "updatedAt": "2023-12-23T12:24:39.742Z",
  "devdoc": {
    "kind": "dev",
    "methods": {},
    "version": 1
  },
  "userdoc": {
    "kind": "user",
    "methods": {},
    "version": 1
  }
}