{
  "contractName": "UserAuth",
  "abi": [
    {
      "anonymous": false,
      "inputs": [
        {
          "indexed": false,
          "internalType": "address",
          "name": "userAddress",
          "type": "address"
        }
      ],
      "name": "LoggedIn",
      "type": "event"
    },
    {
      "anonymous": false,
      "inputs": [
        {
          "indexed": false,
          "internalType": "address",
          "name": "userAddress",
          "type": "address"
        }
      ],
      "name": "SignedUp",
      "type": "event"
    },
    {
      "inputs": [
        {
          "internalType": "address",
          "name": "",
          "type": "address"
        }
      ],
      "name": "users",
      "outputs": [
        {
          "internalType": "string",
          "name": "username",
          "type": "string"
        },
        {
          "internalType": "bytes32",
          "name": "passwordHash",
          "type": "bytes32"
        },
        {
          "internalType": "bool",
          "name": "authorized",
          "type": "bool"
        }
      ],
      "stateMutability": "view",
      "type": "function"
    },
    {
      "inputs": [
        {
          "internalType": "string",
          "name": "_username",
          "type": "string"
        },
        {
          "internalType": "string",
          "name": "_password",
          "type": "string"
        }
      ],
      "name": "signup",
      "outputs": [],
      "stateMutability": "nonpayable",
      "type": "function"
    },
    {
      "inputs": [
        {
          "internalType": "string",
          "name": "_password",
          "type": "string"
        }
      ],
      "name": "login",
      "outputs": [],
      "stateMutability": "nonpayable",
      "type": "function"
    }
  ],
  "bytecode": "0x608060405234801561000f575f80fd5b50610cd28061001d5f395ff3fe608060405234801561000f575f80fd5b506004361061003f575f3560e01c80633a7d280c1461004357806347e70e641461005f578063a87430ba1461007b575b5f80fd5b61005d600480360381019061005891906105f0565b6100ad565b005b61007960048036038101906100749190610637565b610219565b005b61009560048036038101906100909190610707565b6103ec565b6040516100a4939291906107de565b60405180910390f35b5f803373ffffffffffffffffffffffffffffffffffffffff1673ffffffffffffffffffffffffffffffffffffffff1681526020019081526020015f206002015f9054906101000a900460ff16610138576040517f08c379a000000000000000000000000000000000000000000000000000000000815260040161012f90610864565b60405180910390fd5b8060405160200161014991906108bc565b604051602081830303815290604052805190602001205f803373ffffffffffffffffffffffffffffffffffffffff1673ffffffffffffffffffffffffffffffffffffffff1681526020019081526020015f2060010154146101df576040517f08c379a00000000000000000000000000000000000000000000000000000000081526004016101d69061091c565b60405180910390fd5b7f0a581ae4192c44a0074ccc9c655d264ea6a838e99ca8dfc8ca439aee62cb51833360405161020e9190610949565b60405180910390a150565b5f803373ffffffffffffffffffffffffffffffffffffffff1673ffffffffffffffffffffffffffffffffffffffff1681526020019081526020015f206002015f9054906101000a900460ff16156102a5576040517f08c379a000000000000000000000000000000000000000000000000000000000815260040161029c906109ac565b60405180910390fd5b815f803373ffffffffffffffffffffffffffffffffffffffff1673ffffffffffffffffffffffffffffffffffffffff1681526020019081526020015f205f0190816102f09190610bcd565b508060405160200161030291906108bc565b604051602081830303815290604052805190602001205f803373ffffffffffffffffffffffffffffffffffffffff1673ffffffffffffffffffffffffffffffffffffffff1681526020019081526020015f20600101819055505f805f3373ffffffffffffffffffffffffffffffffffffffff1673ffffffffffffffffffffffffffffffffffffffff1681526020019081526020015f206002015f6101000a81548160ff0219169083151502179055507fd9c2457acc5ccd00ec03bc7bd9d6017ac7fd390fa4d58a529ea2b07ccf158dc8336040516103e09190610949565b60405180910390a15050565b5f602052805f5260405f205f91509050805f01805461040a906109f7565b80601f0160208091040260200160405190810160405280929190818152602001828054610436906109f7565b80156104815780601f1061045857610100808354040283529160200191610481565b820191905f5260205f20905b81548152906001019060200180831161046457829003601f168201915b505050505090806001015490806002015f9054906101000a900460ff16905083565b5f604051905090565b5f80fd5b5f80fd5b5f80fd5b5f80fd5b5f601f19601f8301169050919050565b7f4e487b71000000000000000000000000000000000000000000000000000000005f52604160045260245ffd5b610502826104bc565b810181811067ffffffffffffffff82111715610521576105206104cc565b5b80604052505050565b5f6105336104a3565b905061053f82826104f9565b919050565b5f67ffffffffffffffff82111561055e5761055d6104cc565b5b610567826104bc565b9050602081019050919050565b828183375f83830152505050565b5f61059461058f84610544565b61052a565b9050828152602081018484840111156105b0576105af6104b8565b5b6105bb848285610574565b509392505050565b5f82601f8301126105d7576105d66104b4565b5b81356105e7848260208601610582565b91505092915050565b5f60208284031215610605576106046104ac565b5b5f82013567ffffffffffffffff811115610622576106216104b0565b5b61062e848285016105c3565b91505092915050565b5f806040838503121561064d5761064c6104ac565b5b5f83013567ffffffffffffffff81111561066a576106696104b0565b5b610676858286016105c3565b925050602083013567ffffffffffffffff811115610697576106966104b0565b5b6106a3858286016105c3565b9150509250929050565b5f73ffffffffffffffffffffffffffffffffffffffff82169050919050565b5f6106d6826106ad565b9050919050565b6106e6816106cc565b81146106f0575f80fd5b50565b5f81359050610701816106dd565b92915050565b5f6020828403121561071c5761071b6104ac565b5b5f610729848285016106f3565b91505092915050565b5f81519050919050565b5f82825260208201905092915050565b5f5b8381101561076957808201518184015260208101905061074e565b5f8484015250505050565b5f61077e82610732565b610788818561073c565b935061079881856020860161074c565b6107a1816104bc565b840191505092915050565b5f819050919050565b6107be816107ac565b82525050565b5f8115159050919050565b6107d8816107c4565b82525050565b5f6060820190508181035f8301526107f68186610774565b905061080560208301856107b5565b61081260408301846107cf565b949350505050565b7f55736572206e6f7420666f756e64206f7220756e617574686f72697a656400005f82015250565b5f61084e601e8361073c565b91506108598261081a565b602082019050919050565b5f6020820190508181035f83015261087b81610842565b9050919050565b5f81905092915050565b5f61089682610732565b6108a08185610882565b93506108b081856020860161074c565b80840191505092915050565b5f6108c7828461088c565b915081905092915050565b7f496e636f72726563742070617373776f726400000000000000000000000000005f82015250565b5f61090660128361073c565b9150610911826108d2565b602082019050919050565b5f6020820190508181035f830152610933816108fa565b9050919050565b610943816106cc565b82525050565b5f60208201905061095c5f83018461093a565b92915050565b7f5573657220616c726561647920657869737473000000000000000000000000005f82015250565b5f61099660138361073c565b91506109a182610962565b602082019050919050565b5f6020820190508181035f8301526109c38161098a565b9050919050565b7f4e487b71000000000000000000000000000000000000000000000000000000005f52602260045260245ffd5b5f6002820490506001821680610a0e57607f821691505b602082108103610a2157610a206109ca565b5b50919050565b5f819050815f5260205f209050919050565b5f6020601f8301049050919050565b5f82821b905092915050565b5f60088302610a837fffffffffffffffffffffffffffffffffffffffffffffffffffffffffffffffff82610a48565b610a8d8683610a48565b95508019841693508086168417925050509392505050565b5f819050919050565b5f819050919050565b5f610ad1610acc610ac784610aa5565b610aae565b610aa5565b9050919050565b5f819050919050565b610aea83610ab7565b610afe610af682610ad8565b848454610a54565b825550505050565b5f90565b610b12610b06565b610b1d818484610ae1565b505050565b5b81811015610b4057610b355f82610b0a565b600181019050610b23565b5050565b601f821115610b8557610b5681610a27565b610b5f84610a39565b81016020851015610b6e578190505b610b82610b7a85610a39565b830182610b22565b50505b505050565b5f82821c905092915050565b5f610ba55f1984600802610b8a565b1980831691505092915050565b5f610bbd8383610b96565b9150826002028217905092915050565b610bd682610732565b67ffffffffffffffff811115610bef57610bee6104cc565b5b610bf982546109f7565b610c04828285610b44565b5f60209050601f831160018114610c35575f8415610c23578287015190505b610c2d8582610bb2565b865550610c94565b601f198416610c4386610a27565b5f5b82811015610c6a57848901518255600182019150602085019450602081019050610c45565b86831015610c875784890151610c83601f891682610b96565b8355505b6001600288020188555050505b50505050505056fea264697066735822122024e209abd80561d34359a9d522860772ad0b900eeab3a2cf1a6b7d748b423a4164736f6c63430008150033",
  "immutableReferences": {},
  "source": "//// SPDX-License-Identifier: MIT\npragma solidity >=0.6.12 <0.9.0;\n\ncontract UserAuth {\n\n    // Mapping to store user data\n    mapping(address => UserData) public users;\n\n    struct UserData {\n        string username;\n        bytes32 passwordHash; // Store securely, don't save plain text passwords!\n        bool authorized; // Flag for authorization status\n    }\n\n    // Event for successful login\n    event LoggedIn(address userAddress);\n\n    // Event for successful signup\n    event SignedUp(address userAddress);\n\n    // Function to signup a new user\n    function signup(string memory _username, string memory _password) public {\n        require(!users[msg.sender].authorized, \"User already exists\");\n        users[msg.sender].username = _username;\n        users[msg.sender].passwordHash = keccak256(abi.encodePacked(_password));\n        users[msg.sender].authorized = false; // New users start as unauthorized\n        emit SignedUp(msg.sender);\n    }\n\n    // Function to login an existing user\n    function login(string memory _password) public {\n        require(users[msg.sender].authorized, \"User not found or unauthorized\");\n        require(users[msg.sender].passwordHash == keccak256(abi.encodePacked(_password)), \"Incorrect password\");\n        emit LoggedIn(msg.sender);\n    }\n}",
  "sourcePath": "/home/krishtimil/dev/dapps/sagarmatha/truffle/contracts/auth.sol",
  "compiler": {
    "name": "solc",
    "version": "0.8.21+commit.d9974bed.Emscripten.clang"
  },
  "schemaVersion": "3.4.16",
  "updatedAt": "2023-12-23T16:39:59.961Z",
  "devdoc": {
    "kind": "dev",
    "methods": {},
    "version": 1
  },
  "userdoc": {
    "kind": "user",
    "methods": {},
    "version": 1
  }
}